{
  "_format": "hh-sol-artifact-1",
  "contractName": "Dappcord",
  "sourceName": "contracts/Dappcord.sol",
  "abi": [
    {
      "inputs": [
        {
          "internalType": "string",
          "name": "_name",
          "type": "string"
        },
        {
          "internalType": "string",
          "name": "_symbol",
          "type": "string"
        }
      ],
      "stateMutability": "nonpayable",
      "type": "constructor"
    },
    {
      "anonymous": false,
      "inputs": [
        {
          "indexed": true,
          "internalType": "address",
          "name": "owner",
          "type": "address"
        },
        {
          "indexed": true,
          "internalType": "address",
          "name": "approved",
          "type": "address"
        },
        {
          "indexed": true,
          "internalType": "uint256",
          "name": "tokenId",
          "type": "uint256"
        }
      ],
      "name": "Approval",
      "type": "event"
    },
    {
      "anonymous": false,
      "inputs": [
        {
          "indexed": true,
          "internalType": "address",
          "name": "owner",
          "type": "address"
        },
        {
          "indexed": true,
          "internalType": "address",
          "name": "operator",
          "type": "address"
        },
        {
          "indexed": false,
          "internalType": "bool",
          "name": "approved",
          "type": "bool"
        }
      ],
      "name": "ApprovalForAll",
      "type": "event"
    },
    {
      "anonymous": false,
      "inputs": [
        {
          "indexed": true,
          "internalType": "address",
          "name": "from",
          "type": "address"
        },
        {
          "indexed": true,
          "internalType": "address",
          "name": "to",
          "type": "address"
        },
        {
          "indexed": true,
          "internalType": "uint256",
          "name": "tokenId",
          "type": "uint256"
        }
      ],
      "name": "Transfer",
      "type": "event"
    },
    {
      "inputs": [
        {
          "internalType": "address",
          "name": "to",
          "type": "address"
        },
        {
          "internalType": "uint256",
          "name": "tokenId",
          "type": "uint256"
        }
      ],
      "name": "approve",
      "outputs": [],
      "stateMutability": "nonpayable",
      "type": "function"
    },
    {
      "inputs": [
        {
          "internalType": "address",
          "name": "owner",
          "type": "address"
        }
      ],
      "name": "balanceOf",
      "outputs": [
        {
          "internalType": "uint256",
          "name": "",
          "type": "uint256"
        }
      ],
      "stateMutability": "view",
      "type": "function"
    },
    {
      "inputs": [
        {
          "internalType": "uint256",
          "name": "",
          "type": "uint256"
        }
      ],
      "name": "channels",
      "outputs": [
        {
          "internalType": "uint256",
          "name": "id",
          "type": "uint256"
        },
        {
          "internalType": "string",
          "name": "name",
          "type": "string"
        },
        {
          "internalType": "uint256",
          "name": "cost",
          "type": "uint256"
        }
      ],
      "stateMutability": "view",
      "type": "function"
    },
    {
      "inputs": [
        {
          "internalType": "string",
          "name": "_name",
          "type": "string"
        },
        {
          "internalType": "uint256",
          "name": "_cost",
          "type": "uint256"
        }
      ],
      "name": "createChannel",
      "outputs": [],
      "stateMutability": "nonpayable",
      "type": "function"
    },
    {
      "inputs": [
        {
          "internalType": "uint256",
          "name": "tokenId",
          "type": "uint256"
        }
      ],
      "name": "getApproved",
      "outputs": [
        {
          "internalType": "address",
          "name": "",
          "type": "address"
        }
      ],
      "stateMutability": "view",
      "type": "function"
    },
    {
      "inputs": [
        {
          "internalType": "uint256",
          "name": "_id",
          "type": "uint256"
        }
      ],
      "name": "getChannel",
      "outputs": [
        {
          "components": [
            {
              "internalType": "uint256",
              "name": "id",
              "type": "uint256"
            },
            {
              "internalType": "string",
              "name": "name",
              "type": "string"
            },
            {
              "internalType": "uint256",
              "name": "cost",
              "type": "uint256"
            }
          ],
          "internalType": "struct Dappcord.Channel",
          "name": "",
          "type": "tuple"
        }
      ],
      "stateMutability": "view",
      "type": "function"
    },
    {
      "inputs": [
        {
          "internalType": "address",
          "name": "owner",
          "type": "address"
        },
        {
          "internalType": "address",
          "name": "operator",
          "type": "address"
        }
      ],
      "name": "isApprovedForAll",
      "outputs": [
        {
          "internalType": "bool",
          "name": "",
          "type": "bool"
        }
      ],
      "stateMutability": "view",
      "type": "function"
    },
    {
      "inputs": [],
      "name": "name",
      "outputs": [
        {
          "internalType": "string",
          "name": "",
          "type": "string"
        }
      ],
      "stateMutability": "view",
      "type": "function"
    },
    {
      "inputs": [],
      "name": "owner",
      "outputs": [
        {
          "internalType": "address",
          "name": "",
          "type": "address"
        }
      ],
      "stateMutability": "view",
      "type": "function"
    },
    {
      "inputs": [
        {
          "internalType": "uint256",
          "name": "tokenId",
          "type": "uint256"
        }
      ],
      "name": "ownerOf",
      "outputs": [
        {
          "internalType": "address",
          "name": "",
          "type": "address"
        }
      ],
      "stateMutability": "view",
      "type": "function"
    },
    {
      "inputs": [
        {
          "internalType": "address",
          "name": "from",
          "type": "address"
        },
        {
          "internalType": "address",
          "name": "to",
          "type": "address"
        },
        {
          "internalType": "uint256",
          "name": "tokenId",
          "type": "uint256"
        }
      ],
      "name": "safeTransferFrom",
      "outputs": [],
      "stateMutability": "nonpayable",
      "type": "function"
    },
    {
      "inputs": [
        {
          "internalType": "address",
          "name": "from",
          "type": "address"
        },
        {
          "internalType": "address",
          "name": "to",
          "type": "address"
        },
        {
          "internalType": "uint256",
          "name": "tokenId",
          "type": "uint256"
        },
        {
          "internalType": "bytes",
          "name": "data",
          "type": "bytes"
        }
      ],
      "name": "safeTransferFrom",
      "outputs": [],
      "stateMutability": "nonpayable",
      "type": "function"
    },
    {
      "inputs": [
        {
          "internalType": "address",
          "name": "operator",
          "type": "address"
        },
        {
          "internalType": "bool",
          "name": "approved",
          "type": "bool"
        }
      ],
      "name": "setApprovalForAll",
      "outputs": [],
      "stateMutability": "nonpayable",
      "type": "function"
    },
    {
      "inputs": [
        {
          "internalType": "bytes4",
          "name": "interfaceId",
          "type": "bytes4"
        }
      ],
      "name": "supportsInterface",
      "outputs": [
        {
          "internalType": "bool",
          "name": "",
          "type": "bool"
        }
      ],
      "stateMutability": "view",
      "type": "function"
    },
    {
      "inputs": [],
      "name": "symbol",
      "outputs": [
        {
          "internalType": "string",
          "name": "",
          "type": "string"
        }
      ],
      "stateMutability": "view",
      "type": "function"
    },
    {
      "inputs": [
        {
          "internalType": "uint256",
          "name": "tokenId",
          "type": "uint256"
        }
      ],
      "name": "tokenURI",
      "outputs": [
        {
          "internalType": "string",
          "name": "",
          "type": "string"
        }
      ],
      "stateMutability": "view",
      "type": "function"
    },
    {
      "inputs": [],
      "name": "totalChannels",
      "outputs": [
        {
          "internalType": "uint256",
          "name": "",
          "type": "uint256"
        }
      ],
      "stateMutability": "view",
      "type": "function"
    },
    {
      "inputs": [],
      "name": "totalSupply",
      "outputs": [
        {
          "internalType": "uint256",
          "name": "",
          "type": "uint256"
        }
      ],
      "stateMutability": "view",
      "type": "function"
    },
    {
      "inputs": [
        {
          "internalType": "address",
          "name": "from",
          "type": "address"
        },
        {
          "internalType": "address",
          "name": "to",
          "type": "address"
        },
        {
          "internalType": "uint256",
          "name": "tokenId",
          "type": "uint256"
        }
      ],
      "name": "transferFrom",
      "outputs": [],
      "stateMutability": "nonpayable",
      "type": "function"
    }
  ],
  "bytecode": "0x608060405260006007553480156200001657600080fd5b5060405162002ff938038062002ff983398181016040528101906200003c919062000240565b818181600090816200004f919062000510565b50806001908162000061919062000510565b50505033600860006101000a81548173ffffffffffffffffffffffffffffffffffffffff021916908373ffffffffffffffffffffffffffffffffffffffff1602179055505050620005f7565b6000604051905090565b600080fd5b600080fd5b600080fd5b600080fd5b6000601f19601f8301169050919050565b7f4e487b7100000000000000000000000000000000000000000000000000000000600052604160045260246000fd5b6200011682620000cb565b810181811067ffffffffffffffff82111715620001385762000137620000dc565b5b80604052505050565b60006200014d620000ad565b90506200015b82826200010b565b919050565b600067ffffffffffffffff8211156200017e576200017d620000dc565b5b6200018982620000cb565b9050602081019050919050565b60005b83811015620001b657808201518184015260208101905062000199565b60008484015250505050565b6000620001d9620001d38462000160565b62000141565b905082815260208101848484011115620001f857620001f7620000c6565b5b6200020584828562000196565b509392505050565b600082601f830112620002255762000224620000c1565b5b815162000237848260208601620001c2565b91505092915050565b600080604083850312156200025a5762000259620000b7565b5b600083015167ffffffffffffffff8111156200027b576200027a620000bc565b5b62000289858286016200020d565b925050602083015167ffffffffffffffff811115620002ad57620002ac620000bc565b5b620002bb858286016200020d565b9150509250929050565b600081519050919050565b7f4e487b7100000000000000000000000000000000000000000000000000000000600052602260045260246000fd5b600060028204905060018216806200031857607f821691505b6020821081036200032e576200032d620002d0565b5b50919050565b60008190508160005260206000209050919050565b60006020601f8301049050919050565b600082821b905092915050565b600060088302620003987fffffffffffffffffffffffffffffffffffffffffffffffffffffffffffffffff8262000359565b620003a4868362000359565b95508019841693508086168417925050509392505050565b6000819050919050565b6000819050919050565b6000620003f1620003eb620003e584620003bc565b620003c6565b620003bc565b9050919050565b6000819050919050565b6200040d83620003d0565b620004256200041c82620003f8565b84845462000366565b825550505050565b600090565b6200043c6200042d565b6200044981848462000402565b505050565b5b8181101562000471576200046560008262000432565b6001810190506200044f565b5050565b601f821115620004c0576200048a8162000334565b620004958462000349565b81016020851015620004a5578190505b620004bd620004b48562000349565b8301826200044e565b50505b505050565b600082821c905092915050565b6000620004e560001984600802620004c5565b1980831691505092915050565b6000620005008383620004d2565b9150826002028217905092915050565b6200051b82620002c5565b67ffffffffffffffff811115620005375762000536620000dc565b5b620005438254620002ff565b6200055082828562000475565b600060209050601f83116001811462000588576000841562000573578287015190505b6200057f8582620004f2565b865550620005ef565b601f198416620005988662000334565b60005b82811015620005c2578489015182556001820191506020850194506020810190506200059b565b86831015620005e25784890151620005de601f891682620004d2565b8355505b6001600288020188555050505b505050505050565b6129f280620006076000396000f3fe608060405234801561001057600080fd5b50600436106101215760003560e01c806370a08231116100ad578063a22cb46511610071578063a22cb4651461031c578063b88d4fde14610338578063c87b56dd14610354578063e5949b5d14610384578063e985e9c5146103b657610121565b806370a08231146102765780637734a9f6146102a65780638da5cb5b146102c457806395d89b41146102e2578063a14865cd1461030057610121565b806310df54a0116100f457806310df54a0146101c057806318160ddd146101f057806323b872dd1461020e57806342842e0e1461022a5780636352211e1461024657610121565b806301ffc9a71461012657806306fdde0314610156578063081812fc14610174578063095ea7b3146101a4575b600080fd5b610140600480360381019061013b91906118cb565b6103e6565b60405161014d9190611913565b60405180910390f35b61015e6104c8565b60405161016b91906119be565b60405180910390f35b61018e60048036038101906101899190611a16565b61055a565b60405161019b9190611a84565b60405180910390f35b6101be60048036038101906101b99190611acb565b6105a0565b005b6101da60048036038101906101d59190611a16565b6106b7565b6040516101e79190611bb4565b60405180910390f35b6101f861078a565b6040516102059190611be5565b60405180910390f35b61022860048036038101906102239190611c00565b610790565b005b610244600480360381019061023f9190611c00565b6107f0565b005b610260600480360381019061025b9190611a16565b610810565b60405161026d9190611a84565b60405180910390f35b610290600480360381019061028b9190611c53565b610896565b60405161029d9190611be5565b60405180910390f35b6102ae61094d565b6040516102bb9190611be5565b60405180910390f35b6102cc610953565b6040516102d99190611a84565b60405180910390f35b6102ea610979565b6040516102f791906119be565b60405180910390f35b61031a60048036038101906103159190611db5565b610a0b565b005b61033660048036038101906103319190611e3d565b610ae0565b005b610352600480360381019061034d9190611f1e565b610af6565b005b61036e60048036038101906103699190611a16565b610b58565b60405161037b91906119be565b60405180910390f35b61039e60048036038101906103999190611a16565b610bc0565b6040516103ad93929190611fa1565b60405180910390f35b6103d060048036038101906103cb9190611fdf565b610c72565b6040516103dd9190611913565b60405180910390f35b60007f80ac58cd000000000000000000000000000000000000000000000000000000007bffffffffffffffffffffffffffffffffffffffffffffffffffffffff1916827bffffffffffffffffffffffffffffffffffffffffffffffffffffffff191614806104b157507f5b5e139f000000000000000000000000000000000000000000000000000000007bffffffffffffffffffffffffffffffffffffffffffffffffffffffff1916827bffffffffffffffffffffffffffffffffffffffffffffffffffffffff1916145b806104c157506104c082610d06565b5b9050919050565b6060600080546104d79061204e565b80601f01602080910402602001604051908101604052809291908181526020018280546105039061204e565b80156105505780601f1061052557610100808354040283529160200191610550565b820191906000526020600020905b81548152906001019060200180831161053357829003601f168201915b5050505050905090565b600061056582610d70565b6004600083815260200190815260200160002060009054906101000a900473ffffffffffffffffffffffffffffffffffffffff169050919050565b60006105ab82610810565b90508073ffffffffffffffffffffffffffffffffffffffff168373ffffffffffffffffffffffffffffffffffffffff160361061b576040517f08c379a0000000000000000000000000000000000000000000000000000000008152600401610612906120f1565b60405180910390fd5b8073ffffffffffffffffffffffffffffffffffffffff1661063a610dbb565b73ffffffffffffffffffffffffffffffffffffffff161480610669575061066881610663610dbb565b610c72565b5b6106a8576040517f08c379a000000000000000000000000000000000000000000000000000000000815260040161069f90612183565b60405180910390fd5b6106b28383610dc3565b505050565b6106bf61183e565b60096000838152602001908152602001600020604051806060016040529081600082015481526020016001820180546106f79061204e565b80601f01602080910402602001604051908101604052809291908181526020018280546107239061204e565b80156107705780601f1061074557610100808354040283529160200191610770565b820191906000526020600020905b81548152906001019060200180831161075357829003601f168201915b505050505081526020016002820154815250509050919050565b60065481565b6107a161079b610dbb565b82610e7c565b6107e0576040517f08c379a00000000000000000000000000000000000000000000000000000000081526004016107d790612215565b60405180910390fd5b6107eb838383610f11565b505050565b61080b83838360405180602001604052806000815250610af6565b505050565b60008061081c8361120a565b9050600073ffffffffffffffffffffffffffffffffffffffff168173ffffffffffffffffffffffffffffffffffffffff160361088d576040517f08c379a000000000000000000000000000000000000000000000000000000000815260040161088490612281565b60405180910390fd5b80915050919050565b60008073ffffffffffffffffffffffffffffffffffffffff168273ffffffffffffffffffffffffffffffffffffffff1603610906576040517f08c379a00000000000000000000000000000000000000000000000000000000081526004016108fd90612313565b60405180910390fd5b600360008373ffffffffffffffffffffffffffffffffffffffff1673ffffffffffffffffffffffffffffffffffffffff168152602001908152602001600020549050919050565b60075481565b600860009054906101000a900473ffffffffffffffffffffffffffffffffffffffff1681565b6060600180546109889061204e565b80601f01602080910402602001604051908101604052809291908181526020018280546109b49061204e565b8015610a015780601f106109d657610100808354040283529160200191610a01565b820191906000526020600020905b8154815290600101906020018083116109e457829003601f168201915b5050505050905090565b600860009054906101000a900473ffffffffffffffffffffffffffffffffffffffff1673ffffffffffffffffffffffffffffffffffffffff163373ffffffffffffffffffffffffffffffffffffffff1614610a6557600080fd5b60076000815480929190610a7890612362565b91905055506040518060600160405280600754815260200183815260200182815250600960006007548152602001908152602001600020600082015181600001556020820151816001019081610ace9190612556565b50604082015181600201559050505050565b610af2610aeb610dbb565b8383611247565b5050565b610b07610b01610dbb565b83610e7c565b610b46576040517f08c379a0000000000000000000000000000000000000000000000000000000008152600401610b3d90612215565b60405180910390fd5b610b52848484846113b3565b50505050565b6060610b6382610d70565b6000610b6d61140f565b90506000815111610b8d5760405180602001604052806000815250610bb8565b80610b9784611426565b604051602001610ba8929190612664565b6040516020818303038152906040525b915050919050565b6009602052806000526040600020600091509050806000015490806001018054610be99061204e565b80601f0160208091040260200160405190810160405280929190818152602001828054610c159061204e565b8015610c625780601f10610c3757610100808354040283529160200191610c62565b820191906000526020600020905b815481529060010190602001808311610c4557829003601f168201915b5050505050908060020154905083565b6000600560008473ffffffffffffffffffffffffffffffffffffffff1673ffffffffffffffffffffffffffffffffffffffff16815260200190815260200160002060008373ffffffffffffffffffffffffffffffffffffffff1673ffffffffffffffffffffffffffffffffffffffff16815260200190815260200160002060009054906101000a900460ff16905092915050565b60007f01ffc9a7000000000000000000000000000000000000000000000000000000007bffffffffffffffffffffffffffffffffffffffffffffffffffffffff1916827bffffffffffffffffffffffffffffffffffffffffffffffffffffffff1916149050919050565b610d79816114f4565b610db8576040517f08c379a0000000000000000000000000000000000000000000000000000000008152600401610daf90612281565b60405180910390fd5b50565b600033905090565b816004600083815260200190815260200160002060006101000a81548173ffffffffffffffffffffffffffffffffffffffff021916908373ffffffffffffffffffffffffffffffffffffffff160217905550808273ffffffffffffffffffffffffffffffffffffffff16610e3683610810565b73ffffffffffffffffffffffffffffffffffffffff167f8c5be1e5ebec7d5bd14f71427d1e84f3dd0314c0f7b2291e5b200ac8c7c3b92560405160405180910390a45050565b600080610e8883610810565b90508073ffffffffffffffffffffffffffffffffffffffff168473ffffffffffffffffffffffffffffffffffffffff161480610eca5750610ec98185610c72565b5b80610f0857508373ffffffffffffffffffffffffffffffffffffffff16610ef08461055a565b73ffffffffffffffffffffffffffffffffffffffff16145b91505092915050565b8273ffffffffffffffffffffffffffffffffffffffff16610f3182610810565b73ffffffffffffffffffffffffffffffffffffffff1614610f87576040517f08c379a0000000000000000000000000000000000000000000000000000000008152600401610f7e906126fa565b60405180910390fd5b600073ffffffffffffffffffffffffffffffffffffffff168273ffffffffffffffffffffffffffffffffffffffff1603610ff6576040517f08c379a0000000000000000000000000000000000000000000000000000000008152600401610fed9061278c565b60405180910390fd5b6110038383836001611535565b8273ffffffffffffffffffffffffffffffffffffffff1661102382610810565b73ffffffffffffffffffffffffffffffffffffffff1614611079576040517f08c379a0000000000000000000000000000000000000000000000000000000008152600401611070906126fa565b60405180910390fd5b6004600082815260200190815260200160002060006101000a81549073ffffffffffffffffffffffffffffffffffffffff02191690556001600360008573ffffffffffffffffffffffffffffffffffffffff1673ffffffffffffffffffffffffffffffffffffffff168152602001908152602001600020600082825403925050819055506001600360008473ffffffffffffffffffffffffffffffffffffffff1673ffffffffffffffffffffffffffffffffffffffff16815260200190815260200160002060008282540192505081905550816002600083815260200190815260200160002060006101000a81548173ffffffffffffffffffffffffffffffffffffffff021916908373ffffffffffffffffffffffffffffffffffffffff160217905550808273ffffffffffffffffffffffffffffffffffffffff168473ffffffffffffffffffffffffffffffffffffffff167fddf252ad1be2c89b69c2b068fc378daa952ba7f163c4a11628f55a4df523b3ef60405160405180910390a4611205838383600161153b565b505050565b60006002600083815260200190815260200160002060009054906101000a900473ffffffffffffffffffffffffffffffffffffffff169050919050565b8173ffffffffffffffffffffffffffffffffffffffff168373ffffffffffffffffffffffffffffffffffffffff16036112b5576040517f08c379a00000000000000000000000000000000000000000000000000000000081526004016112ac906127f8565b60405180910390fd5b80600560008573ffffffffffffffffffffffffffffffffffffffff1673ffffffffffffffffffffffffffffffffffffffff16815260200190815260200160002060008473ffffffffffffffffffffffffffffffffffffffff1673ffffffffffffffffffffffffffffffffffffffff16815260200190815260200160002060006101000a81548160ff0219169083151502179055508173ffffffffffffffffffffffffffffffffffffffff168373ffffffffffffffffffffffffffffffffffffffff167f17307eab39ab6107e8899845ad3d59bd9653f200f220920489ca2b5937696c31836040516113a69190611913565b60405180910390a3505050565b6113be848484610f11565b6113ca84848484611541565b611409576040517f08c379a00000000000000000000000000000000000000000000000000000000081526004016114009061288a565b60405180910390fd5b50505050565b606060405180602001604052806000815250905090565b606060006001611435846116c8565b01905060008167ffffffffffffffff81111561145457611453611c8a565b5b6040519080825280601f01601f1916602001820160405280156114865781602001600182028036833780820191505090505b509050600082602001820190505b6001156114e9578080600190039150507f3031323334353637383961626364656600000000000000000000000000000000600a86061a8153600a85816114dd576114dc6128aa565b5b04945060008503611494575b819350505050919050565b60008073ffffffffffffffffffffffffffffffffffffffff166115168361120a565b73ffffffffffffffffffffffffffffffffffffffff1614159050919050565b50505050565b50505050565b60006115628473ffffffffffffffffffffffffffffffffffffffff1661181b565b156116bb578373ffffffffffffffffffffffffffffffffffffffff1663150b7a0261158b610dbb565b8786866040518563ffffffff1660e01b81526004016115ad949392919061292e565b6020604051808303816000875af19250505080156115e957506040513d601f19601f820116820180604052508101906115e6919061298f565b60015b61166b573d8060008114611619576040519150601f19603f3d011682016040523d82523d6000602084013e61161e565b606091505b506000815103611663576040517f08c379a000000000000000000000000000000000000000000000000000000000815260040161165a9061288a565b60405180910390fd5b805181602001fd5b63150b7a0260e01b7bffffffffffffffffffffffffffffffffffffffffffffffffffffffff1916817bffffffffffffffffffffffffffffffffffffffffffffffffffffffff1916149150506116c0565b600190505b949350505050565b600080600090507a184f03e93ff9f4daa797ed6e38ed64bf6a1f0100000000000000008310611726577a184f03e93ff9f4daa797ed6e38ed64bf6a1f010000000000000000838161171c5761171b6128aa565b5b0492506040810190505b6d04ee2d6d415b85acef81000000008310611763576d04ee2d6d415b85acef81000000008381611759576117586128aa565b5b0492506020810190505b662386f26fc10000831061179257662386f26fc100008381611788576117876128aa565b5b0492506010810190505b6305f5e10083106117bb576305f5e10083816117b1576117b06128aa565b5b0492506008810190505b61271083106117e05761271083816117d6576117d56128aa565b5b0492506004810190505b6064831061180357606483816117f9576117f86128aa565b5b0492506002810190505b600a8310611812576001810190505b80915050919050565b6000808273ffffffffffffffffffffffffffffffffffffffff163b119050919050565b60405180606001604052806000815260200160608152602001600081525090565b6000604051905090565b600080fd5b600080fd5b60007fffffffff0000000000000000000000000000000000000000000000000000000082169050919050565b6118a881611873565b81146118b357600080fd5b50565b6000813590506118c58161189f565b92915050565b6000602082840312156118e1576118e0611869565b5b60006118ef848285016118b6565b91505092915050565b60008115159050919050565b61190d816118f8565b82525050565b60006020820190506119286000830184611904565b92915050565b600081519050919050565b600082825260208201905092915050565b60005b8381101561196857808201518184015260208101905061194d565b60008484015250505050565b6000601f19601f8301169050919050565b60006119908261192e565b61199a8185611939565b93506119aa81856020860161194a565b6119b381611974565b840191505092915050565b600060208201905081810360008301526119d88184611985565b905092915050565b6000819050919050565b6119f3816119e0565b81146119fe57600080fd5b50565b600081359050611a10816119ea565b92915050565b600060208284031215611a2c57611a2b611869565b5b6000611a3a84828501611a01565b91505092915050565b600073ffffffffffffffffffffffffffffffffffffffff82169050919050565b6000611a6e82611a43565b9050919050565b611a7e81611a63565b82525050565b6000602082019050611a996000830184611a75565b92915050565b611aa881611a63565b8114611ab357600080fd5b50565b600081359050611ac581611a9f565b92915050565b60008060408385031215611ae257611ae1611869565b5b6000611af085828601611ab6565b9250506020611b0185828601611a01565b9150509250929050565b611b14816119e0565b82525050565b600082825260208201905092915050565b6000611b368261192e565b611b408185611b1a565b9350611b5081856020860161194a565b611b5981611974565b840191505092915050565b6000606083016000830151611b7c6000860182611b0b565b5060208301518482036020860152611b948282611b2b565b9150506040830151611ba96040860182611b0b565b508091505092915050565b60006020820190508181036000830152611bce8184611b64565b905092915050565b611bdf816119e0565b82525050565b6000602082019050611bfa6000830184611bd6565b92915050565b600080600060608486031215611c1957611c18611869565b5b6000611c2786828701611ab6565b9350506020611c3886828701611ab6565b9250506040611c4986828701611a01565b9150509250925092565b600060208284031215611c6957611c68611869565b5b6000611c7784828501611ab6565b91505092915050565b600080fd5b600080fd5b7f4e487b7100000000000000000000000000000000000000000000000000000000600052604160045260246000fd5b611cc282611974565b810181811067ffffffffffffffff82111715611ce157611ce0611c8a565b5b80604052505050565b6000611cf461185f565b9050611d008282611cb9565b919050565b600067ffffffffffffffff821115611d2057611d1f611c8a565b5b611d2982611974565b9050602081019050919050565b82818337600083830152505050565b6000611d58611d5384611d05565b611cea565b905082815260208101848484011115611d7457611d73611c85565b5b611d7f848285611d36565b509392505050565b600082601f830112611d9c57611d9b611c80565b5b8135611dac848260208601611d45565b91505092915050565b60008060408385031215611dcc57611dcb611869565b5b600083013567ffffffffffffffff811115611dea57611de961186e565b5b611df685828601611d87565b9250506020611e0785828601611a01565b9150509250929050565b611e1a816118f8565b8114611e2557600080fd5b50565b600081359050611e3781611e11565b92915050565b60008060408385031215611e5457611e53611869565b5b6000611e6285828601611ab6565b9250506020611e7385828601611e28565b9150509250929050565b600067ffffffffffffffff821115611e9857611e97611c8a565b5b611ea182611974565b9050602081019050919050565b6000611ec1611ebc84611e7d565b611cea565b905082815260208101848484011115611edd57611edc611c85565b5b611ee8848285611d36565b509392505050565b600082601f830112611f0557611f04611c80565b5b8135611f15848260208601611eae565b91505092915050565b60008060008060808587031215611f3857611f37611869565b5b6000611f4687828801611ab6565b9450506020611f5787828801611ab6565b9350506040611f6887828801611a01565b925050606085013567ffffffffffffffff811115611f8957611f8861186e565b5b611f9587828801611ef0565b91505092959194509250565b6000606082019050611fb66000830186611bd6565b8181036020830152611fc88185611985565b9050611fd76040830184611bd6565b949350505050565b60008060408385031215611ff657611ff5611869565b5b600061200485828601611ab6565b925050602061201585828601611ab6565b9150509250929050565b7f4e487b7100000000000000000000000000000000000000000000000000000000600052602260045260246000fd5b6000600282049050600182168061206657607f821691505b6020821081036120795761207861201f565b5b50919050565b7f4552433732313a20617070726f76616c20746f2063757272656e74206f776e6560008201527f7200000000000000000000000000000000000000000000000000000000000000602082015250565b60006120db602183611939565b91506120e68261207f565b604082019050919050565b6000602082019050818103600083015261210a816120ce565b9050919050565b7f4552433732313a20617070726f76652063616c6c6572206973206e6f7420746f60008201527f6b656e206f776e6572206f7220617070726f76656420666f7220616c6c000000602082015250565b600061216d603d83611939565b915061217882612111565b604082019050919050565b6000602082019050818103600083015261219c81612160565b9050919050565b7f4552433732313a2063616c6c6572206973206e6f7420746f6b656e206f776e6560008201527f72206f7220617070726f76656400000000000000000000000000000000000000602082015250565b60006121ff602d83611939565b915061220a826121a3565b604082019050919050565b6000602082019050818103600083015261222e816121f2565b9050919050565b7f4552433732313a20696e76616c696420746f6b656e2049440000000000000000600082015250565b600061226b601883611939565b915061227682612235565b602082019050919050565b6000602082019050818103600083015261229a8161225e565b9050919050565b7f4552433732313a2061646472657373207a65726f206973206e6f74206120766160008201527f6c6964206f776e65720000000000000000000000000000000000000000000000602082015250565b60006122fd602983611939565b9150612308826122a1565b604082019050919050565b6000602082019050818103600083015261232c816122f0565b9050919050565b7f4e487b7100000000000000000000000000000000000000000000000000000000600052601160045260246000fd5b600061236d826119e0565b91507fffffffffffffffffffffffffffffffffffffffffffffffffffffffffffffffff820361239f5761239e612333565b5b600182019050919050565b60008190508160005260206000209050919050565b60006020601f8301049050919050565b600082821b905092915050565b60006008830261240c7fffffffffffffffffffffffffffffffffffffffffffffffffffffffffffffffff826123cf565b61241686836123cf565b95508019841693508086168417925050509392505050565b6000819050919050565b600061245361244e612449846119e0565b61242e565b6119e0565b9050919050565b6000819050919050565b61246d83612438565b6124816124798261245a565b8484546123dc565b825550505050565b600090565b612496612489565b6124a1818484612464565b505050565b5b818110156124c5576124ba60008261248e565b6001810190506124a7565b5050565b601f82111561250a576124db816123aa565b6124e4846123bf565b810160208510156124f3578190505b6125076124ff856123bf565b8301826124a6565b50505b505050565b600082821c905092915050565b600061252d6000198460080261250f565b1980831691505092915050565b6000612546838361251c565b9150826002028217905092915050565b61255f8261192e565b67ffffffffffffffff81111561257857612577611c8a565b5b612582825461204e565b61258d8282856124c9565b600060209050601f8311600181146125c057600084156125ae578287015190505b6125b8858261253a565b865550612620565b601f1984166125ce866123aa565b60005b828110156125f6578489015182556001820191506020850194506020810190506125d1565b86831015612613578489015161260f601f89168261251c565b8355505b6001600288020188555050505b505050505050565b600081905092915050565b600061263e8261192e565b6126488185612628565b935061265881856020860161194a565b80840191505092915050565b60006126708285612633565b915061267c8284612633565b91508190509392505050565b7f4552433732313a207472616e736665722066726f6d20696e636f72726563742060008201527f6f776e6572000000000000000000000000000000000000000000000000000000602082015250565b60006126e4602583611939565b91506126ef82612688565b604082019050919050565b60006020820190508181036000830152612713816126d7565b9050919050565b7f4552433732313a207472616e7366657220746f20746865207a65726f2061646460008201527f7265737300000000000000000000000000000000000000000000000000000000602082015250565b6000612776602483611939565b91506127818261271a565b604082019050919050565b600060208201905081810360008301526127a581612769565b9050919050565b7f4552433732313a20617070726f766520746f2063616c6c657200000000000000600082015250565b60006127e2601983611939565b91506127ed826127ac565b602082019050919050565b60006020820190508181036000830152612811816127d5565b9050919050565b7f4552433732313a207472616e7366657220746f206e6f6e20455243373231526560008201527f63656976657220696d706c656d656e7465720000000000000000000000000000602082015250565b6000612874603283611939565b915061287f82612818565b604082019050919050565b600060208201905081810360008301526128a381612867565b9050919050565b7f4e487b7100000000000000000000000000000000000000000000000000000000600052601260045260246000fd5b600081519050919050565b600082825260208201905092915050565b6000612900826128d9565b61290a81856128e4565b935061291a81856020860161194a565b61292381611974565b840191505092915050565b60006080820190506129436000830187611a75565b6129506020830186611a75565b61295d6040830185611bd6565b818103606083015261296f81846128f5565b905095945050505050565b6000815190506129898161189f565b92915050565b6000602082840312156129a5576129a4611869565b5b60006129b38482850161297a565b9150509291505056fea26469706673582212200190d2a15b7cde91c372cc629286e0775e9bad22e8ea4d7ecbda25e872ccbd0e64736f6c63430008110033",
  "linkReferences": {},
  "deployedLinkReferences": {}
}